:020000000C945E
:100002004D000C9400000C9400000C9400000C9421
:1000120000000C9400000C9400000C9400000C945E
:1000220000000C9400000C9400000C9400000C944E
:1000320000000C9400000C9400000C9400000C943E
:1000420000000C9400000C9400000C9400000C942E
:1000520000003F065B4F666D7D077F6F3F065B4F7B
:10006200666D7D077F6F3F065B4F666D7D077F6F15
:100072003F065B4F666D3F060A00600254000A00AD
:100082006A025E000A007402680006007E027200C4
:100092000200840278000000F894EE27ECBBF1E045
:1000A200FBBFEBBFE5BFF8E1F1BDE1BD8DE0A2E032
:1000B200BB27ED938A95E9F780E098E0A0E6ED93FF
:1000C2000197E9F7EAE7F0E085919591009761F0F1
:1000D200A591B59105901590BF01F00105900D9283
:1000E2000197E1F7FB01F0CFEFE5EDBFE8E0EEBFEE
:1000F200C0E6D2E00C941F015401D50111D12F01A9
:10010200D50113D13F010895E0918A02F0918B024B
:10011200E0938C02F0938D02A0918C02B0918D023B
:10012200FFD0E0938602F0938702A0918C02B091F7
:100132008D02FBD0E0938802F09389020895E0914A
:100142009602F0919702E0939802F0939902F3D00D
:10015200E7D0E0938E02F0938F02EDD0EAE0F0E078
:100162000E94FC01DF01E6E0F0E00E940102E09360
:100172009002F0939102DFD0ECE3F0E00E94FC01E8
:10018200DF01CED0E0939202F0939302D4D0E8EE56
:10019200F3E00E94FC01DF01C3D0E0939402F093EC
:1001A200950208951898CCD01D9A1E9A1F9AA0E61F
:1001B200B2E0A40DB51DC9D019981A9A1B9ACDD0D8
:1001C200A0E6B2E0A60DB71DC0D0199A1A981B9AE4
:1001D200C4D0E0918602F0918702C4D01B98BDD0B2
:1001E200E0918802F0918902BDD01B9A1C981D9A59
:1001F2001E9A1F9AE0918E02F0918F02BFD01D9835
:100202001E9A1F9AE0919002F0919102E258FD4FDE
:10021200BFD0189A95D01D9A1E981F9AE09192020B
:10022200F0919302ABD01D9A1E9A1F98E09194020E
:10023200F0919502EC57FD4FABD008958824992494
:10024200E0E0E0938A02E0938B02E8E5F2E0E093DB
:100252009602F0939702EFEFEBBBE0E0EABBEFEF21
:10026200E8BBE0E0E7BBE2BBEFEFE1BBE3B9E2B939
:10027200E0936100CC24DD24E5E0F0E0CE16DF0659
:1002820044F43ADF41DF8EDF5ADFF60131966F0127
:10029200F3CFB09913C0A6E9B2E0ED91FD91319789
:1002A200FE93EE93A0919602B09197020E941D02D6
:1002B2002CF0E0E0E0939602E0939702E091960240
:1002C200F0919702309729F4E1E0E0936200A4E60E
:1002D20065D0B1990CC069D0F40131964F01E3E6C3
:1002E200F0E0E815F9051CF4F40133964F01B299D8
:1002F20015C05BD0AAE8B2E0ED91FD913196FE9374
:10030200EE93A0918A02B0918B02A436E0E0BE0780
:100312002CF0E0E0E0938A02E0938B02ABCFFFCFB8
:10032200EAE0F0E00E9401020895EAE0F0E00E94B3
:10033200FC01DF01F5CFA0919802B09199020895D6
:10034200199A1A9A1B9A1C9A0895EC91E2BBA1E0A1
:10035200B0E00E94DB01189A08951C9A1D9A1E9A19
:100362001F9A0895E659FD4FE081E2BBA1E0B0E09B
:100372000E94DB01189A199A1A9A0895EC58FD4FB7
:10038200E081E2BBA1E0B0E00E94DB01189AD8CF85
:10039200E081E2BBA1E0B0E00C94DB01B0E00E949E
:1003A200DB01E0E0E09362000895E1E0E0936200A7
:1003B200AEE1F4CF109639F080ED97E00197F1F7B6
:1003C200A8951197C9F70895F195E195F040089520
:1003D2000024112490E1AA0FBB1F001C111C0E1A4D
:1003E2001F0A18F40E0E1F1E01C0A1609A9599F7FC
:1003F200FD01D001089512D0EBDF0EF4E5DF089580
:10040200E894B7FF04C0A095B09511966894F7FDE3
:10041200DBDFDEDFFD010EF4D7DF0895E894F7FF9E
:1004220002C0D2DF6894B7FF06C0A095B0951196BE
:1004320000F8039400FA089500240A160B060895A2
:00000001FF
